:020000040800F2
:100000002008002001010008510F0008BD0C000865
:100010004D0F00089F090008A71A00080000000003
:10002000000000000000000000000000E5170008CC
:100030009D0B0008000000002F160008F9180008AA
:100040001B0100081B0100081B0100081B01000820
:100050001B0100081B0100081B0100081B01000810
:100060001B0100081B0100081B0100081B01000800
:100070001B0100081B0100081B0100081B010008F0
:100080001B0100081B0100081B0100081B010008E0
:100090001B0100081B0100081B0100081B010008D0
:1000A0001B0100081B0100081B0100081B010008C0
:1000B0001B010008991900081B0100081B0100081A
:1000C0001B0100081B0100081B0100081B010008A0
:1000D0001B010008D91900081B0100081B010008BA
:1000E0001B0100081B0100081B010008DFF80CD0F1
:1000F00000F02CFB00480047CD1C00082008002021
:100100000648804706480047FEE7FEE7FEE7FEE7B1
:10011000FEE7FEE7FEE7FEE7FEE7FEE73919000827
:10012000ED0000082DE9FE4F804681EA0300C00F74
:100130000C46009021F0004123F00045B8EB02008E
:10014000A94105D24046214690461C460B46024630
:1001500023F00040104347D0270DC7F30A00C3F334
:100160000A510290401A019040286BDAC3F3130041
:1001700040F4801B0098924620B10023D2EB030A82
:1001800063EB0B0B01985946C0F14002504600F05A
:1001900017FA06460D4650465946019A00F02FFAC6
:1001A00010EB08006141002487EA115284EAE773EA
:1001B0001A4340D0009A62B3019A012A4FEA0752CB
:1001C00015DC001B61EB02014FF0004202EA07520E
:1001D000CDE90042001C41F5801132462B4600F06B
:1001E00066FA03B0BDE8F08F40462146F9E7001BF0
:1001F00061EB0201001C41F5801300185B412018DF
:10020000A2F5001747EB030140EAD570B6196D411E
:1002100011E06D084FEA360645EAC0754FEA07520D
:10022000001B61EB0201001C41F5801149084FEAF7
:1002300030000019514132462B4603B0BDE8F04F63
:1002400000F026BA0098012240000023D0EB020201
:1002500063EBE073009821464FEAE074B8EB0000CE
:1002600061EB0401E9E783F000435BE781F00041C3
:1002700058E72DE9FE4F81EA030404F0004421F021
:10028000004100944FF0000B23F0004350EA0104BA
:100290005ED052EA03045BD0C3F30A54C1F30A559B
:1002A0002C44A4F2F3340194A0FB0254C1F31301D3
:1002B00041F48011C3F3130343F4801301FB0244A0
:1002C00000FB034E840A970A44EA815447EA8357A5
:1002D000A4FB076802958D0A05FB07854FEA932C5E
:1002E00004FB0C542705029D4FEA065847EA1637CF
:1002F000B5EB08056EEB070C870E920E47EA8117E7
:1003000042EA8312A7FB0201B6EB0B0164EB000487
:100310002B0D43EA0C335E1844EB1C50DA46514671
:10032000E7FB0201C5F313044FEA0B3343EA14530E
:100330004FEA0432019C43EA0603A4F10C04029440
:10034000009CCDE900B400F0B2F903B0BDE8F08F35
:1003500000200146F9E72DE9F04D81EA030404F09D
:10036000004B21F0004514464FF0000A23F00041F5
:1003700050EA050220D054EA01021DD0C5F30A5705
:100380000246C5F31303C1F31300C1F30A5640F448
:10039000801543F48013A7EB0608101BD64608F21D
:1003A000FD3873EB050002D308F1010801E0921853
:1003B0005B41B8F1000F03DA00200146BDE8F08D83
:1003C00000204FF48011064684460EE0171B73EBA5
:1003D000050705D3121B63EB050306434CEA010C2A
:1003E00049084FEA300092185B4150EA0107EDD10D
:1003F00052EA030012D082EA040083EA05010843AE
:1004000005D0101BAB4106D20122002306E00022DA
:100410004FF0004302E06FF0010253101AEB0600A8
:100420004CEB085110EB0A0041EB0B01BDE8F04D1D
:1004300000F02EB996230022114600F0FBB80EB54D
:10044000C10F80EAE0700844CA07002140F233433C
:100450008DE80E000A460B4600F029F903B000BDF6
:1004600000F0004220F00040C10DC0F3160040F43F
:1004700000007F2901DA00207047962903DCC1F1D2
:100480009601C84001E096398840002AF4D04042E5
:10049000704770B5C1F30A5201F000450024C1F362
:1004A000130140F2FF3341F480119A4201DA002037
:1004B00070BD40F233439A42A2F2334203DC52420F
:1004C00000F08DF800E090402C43F1D0404270BD28
:1004D000C1F30A5210B5C1F3130140F2FF3341F4E6
:1004E00080119A4201DA002010BD40F233439A4253
:1004F000A2F2334203DC524200F071F810BD90408A
:1005000010BD00F0004230F000400AD0C10D01F5EE
:100510006071C0F3160042EA0151C208400711435E
:10052000704700200146704730B5041E71F1000489
:1005300004DB4FF00044404264EB0101141E73F1F0
:10054000000405DB1C464FF00043524263EB0403FA
:100550008B4208BF824230BD30B5041E71F10004E9
:1005600004DB4FF00044404264EB0101141E73F1C0
:10057000000405DB1C464FF00043524263EB0403CA
:10058000994208BF904230BD01F0004330B421F0E1
:10059000004150EA010206D00A0DA2F56072C1F3D3
:1005A0001301002A02DC30BC00207047440F44EAEB
:1005B000C104C100E01830BC00EBC25000F031B8FB
:1005C000202A04DB203A00FA02F100207047914013
:1005D000C2F1200320FA03F3194390407047202A08
:1005E00004DB203A21FA02F00021704721FA02F3DD
:1005F000D040C2F120029140084319467047202A9A
:1006000006DBCB17203A41FA02F043EAE07306E03A
:1006100041FA02F3D040C2F120029140084319464A
:1006200070470029A8BF7047401C490008BF20F050
:100630000100704710B4B0FA80FC00FA0CF050EAE8
:10064000010404BF10BC704749B1CCF1200421FA69
:1006500004F411FA0CF118BF012121430843A3EB64
:100660000C01CB1D4FEA00614FEA102042BF002071
:1006700010BC704700EBC35010440029A4BF10BC4D
:100680007047401C490008BF20F0010010BC7047B3
:1006900010B5141E73F1000408DA401C41F100018A
:1006A00092185B411A4301D120F0010010BD2DE9E1
:1006B000F04D92469B4611B1B1FA81F202E0B0FAD8
:1006C00080F220329046FFF77BFF04460F4640EA57
:1006D0000A0041EA0B0153465A46084313D011461B
:1006E00053EA010019D0C8F140025046FFF777FFE6
:1006F00005460E46504659464246FFF761FF0843FD
:1007000005D0012004E020463946BDE8F08D0020E8
:10071000054346EAE0762C4337430A986305E40A2A
:10072000A0EB08000022FD0A44EA47540A3002D533
:1007300000200146E9E7010510196941DDE9084596
:1007400000196941BDE8F04DA2E70000064C074DD5
:1007500006E0E06840F0010394E807009847103491
:10076000AC42F6D3FFF7C6FC5029000870290008F8
:1007700070B58D1810F8014B14F0030201D110F878
:10078000012B231106D110F8013B03E010F8016B97
:1007900001F8016B521EF9D1ABB110F8012B04F036
:1007A0000C048A1A0C2C03D0A2EB84129B1C08E0C8
:1007B00010F8014BA2EB0422F8E712F8014B01F804
:1007C000014B5B1EF9D5A942D4D3002070BD21B1E5
:1007D000826842F00102826003E0826822F0010236
:1007E0008260704721B1826842F48072826003E0C7
:1007F000826822F4807282607047000010B504465F
:100800001248844208D10121401500F03DFF00212B
:10081000601500F039FF17E00D48844208D101212E
:10082000001500F031FF0021201500F02DFF0BE036
:100830000848844208D10121C80300F025FF0021A7
:100840004FF4004000F020FF10BD000000240140E4
:1008500000280140003C0140014600208A6802F067
:1008600004020AB1012000E00020704730B50246C2
:100870000020002350680F4C20400D790C6844EA9A
:1008800005242043506090680B4C2040D1E902546D
:100890002C434D7944EA450420439060D06A20F40B
:1008A00070000C7C641EE4B2234340EA0350D06223
:1008B00030BD0000FFFEF0FFFDF7F1FFF0B504468C
:1008C0000D4600200021092D11DDE068A5F10A0682
:1008D00006EB4607072606FA07F18843A5F10A0644
:1008E00006EB460603FA06F10843E0600CE02069D7
:1008F00005EB4507072606FA07F1884305EB450691
:1009000003FA06F108432061072A0FDA606B561ECE
:1009100006EB86071F2606FA07F18843561E06EBEC
:10092000860605FA06F10843606322E00D2A0FDA15
:10093000206BD61F06EB86071F2606FA07F18843B1
:10094000D61F06EB860605FA06F10843206310E081
:10095000E06AA2F10D0606EB86071F2606FA07F1EC
:100960008843A2F10D0606EB860605FA06F1084358
:10097000E062F0BD816841F008018160704721B1FB
:10098000826842F4A002826003E0826822F4A0023E
:1009900082607047816841F004018160704700BF48
:1009A000FEE721B1026842F00102026004E0026841
:1009B0004FF6FE731A4002607047000000B58BB01E
:1009C0000121084600F040FE0F4800F023F80F48D0
:1009D00000900F4801900020029004200390002016
:1009E0000490802005904000069080000790202011
:1009F00008900002099000200A906946024800F021
:100A0000AFF80BB000BD0000080002404C240140CC
:100A10001404002001684FF6FE72114001600021AD
:100A2000016041608160C1604B49884208D14A49F8
:100A30000839496841F00F01474A083A51608AE095
:100A400045491431884208D143490839496841F081
:100A5000F001414A083A51607DE03F49283188421F
:100A600008D13D490839496841F470613A4A083A69
:100A7000516070E038493C31884208D13649083924
:100A8000496841F47041344A083A516063E03249A0
:100A90005031884208D130490839496841F4702101
:100AA0002D4A083A516056E02B496431884208D1FA
:100AB00029490839496841F47001274A083A5160C8
:100AC00049E025497831884208D1234908394968E5
:100AD00041F07061204A083A51603CE01F49884269
:100AE00006D1011F096841F00F01021F116032E0B9
:100AF0001A491431884208D11849091F096841F080
:100B0000F001164A121F116025E01449283188426D
:100B100008D11249091F096841F470610F4A121F78
:100B2000116018E00D493C31884208D10B49091F7A
:100B3000096841F47041094A121F11600BE007492E
:100B40005031884207D10549091F096841F47021D5
:100B5000024A121F11607047080002400804024058
:100B600010B50022026847F6F0739A430C6A8B684E
:100B700023430C6923434C6923438C692343CC6989
:100B800023434C6A23438C6A23431A430260CB6895
:100B900043600B6883604B68C36010BD70472DE9EC
:100BA000F0410246002500260020002300240027F3
:100BB00091F803C00CF00F0591F803C00CF0100C75
:100BC000BCF1000F03D091F802C04CEA050591F882
:100BD00000C0BCF1000F31D0146800202BE04FF0B2
:100BE000010C0CFA00F3B1F800C00CEA03069E42B7
:100BF00020D183004FF00F0C0CFA03F7BC4305FA29
:100C000003FC4CEA040491F803C0BCF1280F06D1A0
:100C10004FF0010C0CFA00FCC2F814C00AE091F885
:100C200003C0BCF1480F05D14FF0010C0CFA00FCD9
:100C3000C2F810C0401C0828D1D31460B1F800C01D
:100C4000BCF1FF0F34DD546800202EE000F1080CE9
:100C50004FF0010808FA0CF3B1F800C00CEA0306E3
:100C60009E4221D183004FF00F0C0CFA03F7BC43D6
:100C700005FA03FC4CEA040491F803C0BCF1280F08
:100C800005D100F1080C08FA0CF8C2F8148091F8AC
:100C900003C0BCF1480F07D100F1080C4FF0010868
:100CA00008FA0CF8C2F81080401C0828CED3546013
:100CB000BDE8F081416170470161704700BFFEE708
:100CC00008B50121082000F0CFFC2020ADF800007D
:100CD00003208DF8020010208DF8030069460848B3
:100CE000FFF75DFF4020ADF8000069460448FFF7BC
:100CF00056FF0120034908600349C1F8980108BD67
:100D0000000C0140948121420080214270B50446CC
:100D100000F0D8FC002014490860002520E004F011
:100D20008000002804DD01200F49091D086003E050
:100D300000200D49091D08606006040E022000F025
:100D400015FF012008490860022000F00FFF002075
:100D50000649C1F89401022000F008FF681CC5B2E2
:100D6000082DDCDB70BD000094812142008021420F
:100D700010B500F0A7FC0120094908600949C1F835
:100D80009401052000F0F2FE0020054908600620CD
:100D900000F0ECFE00200349C1F8940110BD0000F2
:100DA000988121420080214210B500F08BFC002088
:100DB000094908600949C1F89801012006490860FD
:100DC000062000F0D3FE01200449C1F89801062056
:100DD00000F0CCFE10BD0000948121420080214231
:100DE00010B5002401200F49086000F0BFFE00F09C
:100DF0005BFC01200C49C1F8940100F0B7FE07E04C
:100E0000601CC4B2FA2C03DDFFF7CEFF012010BD39
:100E10000448803800680028F2D10249091F0860A0
:100E200000BFF4E7988121420080214200B587B0DD
:100E300001214FF4017000F017FC4FF4C070ADF8C1
:100E4000180048208DF81B0003208DF81A0006A911
:100E50003B48FFF7A4FE4FF4C050ADF818004820FF
:100E60008DF81B0003208DF81A0006A93448FFF7FF
:100E700096FE4FF4004000F0DBFB4E20ADF818006A
:100E800000208DF81B0003208DF81A0006A92C48BD
:100E9000FFF785FE4E212A48FFF70CFF2948FFF790
:100EA000ADFCFFF78BFD0020019001208DF80800BC
:100EB0008DF809004FF46020039000200490042076
:100EC0008DF8140001A91F48FFF7D0FC0723012269
:100ED00011461C48FFF7F2FC07230222114619486D
:100EE000FFF7ECFC0723032211461648FFF7E6FC48
:100EF0000723042206211348FFF7E0FC01211148D3
:100F0000FFF770FC01210F48FFF761FC0D48FFF768
:100F100031FD0C48FFF72EFD0A48FFF73BFD00BFEF
:100F20000848FFF799FC0028FAD101210648FFF78D
:100F300038FD01210348FFF722FD07B000BD000086
:100F400000080140002401400800024000BFFEE705
:100F5000704700001CB510A103C9CDE900010522AE
:100F60006946302000F0ECF805226946102000F0B8
:100F70004FF8002406E01DF80400A52800D003E087
:100F8000601CC4B2052CF6DB00BF052C01D001208B
:100F90001CBD0020FCE70000A5A5A5A5A50000003C
:100FA00008B50121082000F05FFB4FF4A050ADF818
:100FB000000010208DF8030003208DF80200694620
:100FC0000F48FFF7ECFD4FF40060ADF8000048203B
:100FD0008DF8030003208DF8020069460848FFF7EA
:100FE000DEFD4FF400610748FFF766FE00F07CFB72
:100FF00000200549086001200449C1F8A80108BD86
:10100000000C014000080140B081214200802142D3
:101010002DE9F04107460D46164600200A490860B2
:10102000384600F0A5FB8046002405E0FF2000F0D4
:101030009FFB2855601CC4B2B442F7DB0120024973
:1010400008604046BDE8F081A881214270B50446A1
:10105000002007490860204600F08AFBFF2000F0CE
:1010600087FB054601200349C1F8A801284670BD49
:10107000A88121420080214210B500201449086057
:1010800005221449302000F05BF8052212492A207D
:1010900000F056F80121212000F070F801212220F3
:1010A00000F06CF81A21242000F068F8282125208F
:1010B00000F064F80F21262000F060F80E212020B7
:1010C00000F05CF801200549C1F8B00110BD000036
:1010D000B0812142442900084929000800802142AA
:1010E00070B5054600201449086020222946A0203A
:1010F00000F026F801201149C1F8B00100BF0E48E8
:10110000843800680028FAD10720FFF79FFF0446C3
:101110002146272000F032F804F0100028B1FF210A
:10112000E12000F02BF8102070BD04F0200008B181
:101130002020F9E7FF20F7E7B0812142008021421B
:101140002DE9F04107460C46154600200A49086083
:10115000384600F00DFB8046002605E014F8010B30
:1011600000F006FB701CC6B2AE42F7DB012002495C
:1011700008604046BDE8F081A881214270B505466F
:101180000C46002007490860284600F0F1FA0646A0
:10119000204600F0EDFA01200349C1F8A8013046CD
:1011A00070BD0000A8812142008021420249014314
:1011B000024A1160704700000000FA050CED00E0E3
:1011C00070B5002418E004F1B000002100F023FA0B
:1011D0000021084600F01FFA0021102000F01BFA41
:1011E000002505E00121002000F015FA681CC5B2B9
:1011F000802DF7DB601CC4B2082CE4DB70BD2DE948
:10120000F05F06460F4690461C46DDF828A04FF0DA
:10121000000BE11704EB5171C910A4EBC10131B906
:101220002046E11704EB5171C1F3C70506E02046E3
:10123000E11704EB5171C910491CCDB23D4615E0D0
:101240002946304600F064F9B1460BE059460BF1EF
:10125000010B1AF80100012100F0DDF909F101008C
:1012600000F0FF09C145F1DB681CC5B2A542E7DB10
:10127000BDE8F09F2DE9FF5F86B014461D464FF094
:10128000010A00200390049005904FF00109002608
:1012900000BF83460022134620462946FFF744F943
:1012A00009D285F00040CDE9004020460199FFF7C2
:1012B000F0F8064604E020462946FFF7EAF806461D
:1012C0003046FFF7BCF822462B46CDE90001FEF779
:1012D000CDFF074688460022554B38464146FEF76B
:1012E000C8FFCDE90001FFF7F3F8834607E009EBFB
:1012F00089004FEA40090AF1010000F0FF0A0A20C4
:1013000096FBF0F090FBF9F00028F0D142F210705B
:1013100096FBF0F00A2190FBF1F201FB1200C0B243
:101320008DF80C004FF47A7096FBF0F090FBF1F220
:1013300001FB1200C0B28DF80D00642096FBF0F0A6
:1013400090FBF1F201FB1200C0B28DF80E000A20F2
:1013500096FBF0F090FBF1F201FB1200C0B28DF8A9
:101360000F000A2096FBF0F100FB1160C0B28DF86F
:1013700010002E208DF811004FF47A70BBFBF0F0B6
:101380000A21B0FBF1F201FB12008DF8120064207B
:10139000BBFBF0F0B0FBF1F201FB12008DF8130083
:1013A0000A20BBFBF0F0B0FBF1F201FB12008DF85C
:1013B00014000A20BBFBF0F100FB11B08DF8150002
:1013C00000211498801D03AA1154894608E003A83F
:1013D00010F80900303003A901F8090009F10109EA
:1013E000B9F10A0FF3DB0022134620462946FFF726
:1013F0009BF808D20AF1010000F0FF0A2D20CAF183
:10140000050103AA50542E208DF8110000211498D4
:10141000801D03AA1154CAF1050003A942180C2328
:10142000DDE9061000F0DAF80AB0BDE8F09F000030
:101430000088C34010B50021AE2000F0ECF8002178
:10144000084600F0E8F80021102000F0E4F8002140
:10145000402000F0E0F80021B02000F0DCF800218E
:10146000812000F0D8F80021FF2000F0D4F80021FE
:10147000A12000F0D0F80021A62000F0CCF8002137
:10148000A82000F0C8F800213F2000F0C4F8002197
:10149000C82000F0C0F80021D32000F0BCF80021E3
:1014A000084600F0B8F80021D52000F0B4F800217B
:1014B000802000F0B0F80021D82000F0ACF8002126
:1014C000052000F0A8F80021D92000F0A4F80021A0
:1014D000F12000F0A0F80021DA2000F09CF80021B3
:1014E000122000F098F80021DB2000F094F8002191
:1014F000302000F090F800218D2000F08CF80021C1
:10150000142000F088F80021AF2000F084F810BD0E
:1015100070B504460D4605F1B000002100F07BF8DF
:10152000102141EA1410002100F075F804F00F00BA
:10153000002100F070F870BD2DE9F04707460E4617
:101540009046994600250024A8F12000C5B27F2FBF
:1015500002DD0027B01CC6B2B9F1100F24D131460C
:101560003846FFF7D5FF002408E004EB0511194ABF
:10157000505C012100F04FF8601CC4B2082CF4DB71
:10158000701CC1B23846FFF7C3FF002409E004EB2A
:10159000051108310F4A505C012100F03CF8601C35
:1015A000C4B2082CF3DB12E031463846FFF7B0FF37
:1015B00000240AE005EB4501074A02EB4101085D02
:1015C000012100F028F8601CC4B2062CF2DBBDE853
:1015D000F0870000542300082C2100082DE9F04179
:1015E00004460F461546984600260FE0AA5D43467E
:1015F00039462046FFF7A0FF04F10800C4B2782C5A
:1016000002DD0024B81CC7B2701CC6B2A85D002859
:10161000ECD1BDE8F08170B504460D461DB1E0B2D5
:1016200000F059FA02E0E0B200F03FFA70BD7047F6
:1016300001460020034A506820F4404008435060AF
:10164000704700000010024029B1064A5269024367
:10165000044B5A6104E0034A52698243014B5A61C8
:10166000704700000010024029B1064A9269024307
:10167000044B9A6104E0034A92698243014B9A61E8
:10168000704700000010024029B1064AD2680243A8
:10169000044BDA6004E0034AD2688243014BDA600B
:1016A000704700000010024008B54020ADF800006F
:1016B00048208DF8030069460148FFF770FA08BD1D
:1016C000000C014008B54020ADF8000003208DF863
:1016D000020010208DF8030069460248FFF75FFA08
:1016E00008BD0000000C014008B501210C20FFF7E7
:1016F000BBFF10208DF803008001ADF8000003202F
:101700008DF8020069461948FFF749FA4FF4005076
:10171000ADF8000010208DF8030069461348FFF76C
:101720003EFA4FF48040ADF8000004208DF803002D
:1017300069460E48FFF733FA4FF40040ADF8000059
:1017400010208DF8030069460848FFF728FA07487B
:101750001030006840F48060044910310860081DB2
:10176000006840F40050091D086008BD000C0140ED
:101770001B4A126842F40052194B1A6000212CE0F7
:1017800000F08002802A08D1154A121F126842F424
:101790000042134B1B1F1A6005E0114A126842F405
:1017A00000420F4B1A600E4A121F126842F4005298
:1017B0000B4B1B1F1A604206100E094A0C3A1268A6
:1017C00002F480420AB140F00100054A126842F476
:1017D0000052034B1A604A1CD1B20829D0DB704773
:1017E000140C0140704710B500F002F810BD000065
:1017F0000CB50020019000903348006840F4803020
:101800003149086000BF3048006800F400300090A3
:101810000198401C0190009818B90198B0F5A06F8C
:10182000F1D12948006800F4003010B10120009087
:1018300001E0002000900098012843D1234800686F
:1018400040F01000214908600846006820F00300BD
:1018500008600846006840F0020008601A484068C6
:10186000194948600846406848600846406840F4A6
:10187000806048600846406820F47C104860084654
:10188000406840F4E81048600846006840F0807006
:10189000086000BF0C48006800F000700028F9D014
:1018A0000948406820F0030007494860084640683E
:1018B00040F00200486000BF0348406800F00C00A0
:1018C0000828F9D10CBD00000010024000200240A1
:1018D000042808D14FF0E021096941F004014FF0DC
:1018E000E022116107E04FF0E021096921F00401D5
:1018F0004FF0E022116170477047000010B50446B8
:101900006FF00400FFF7E4FFE11704EB5171C1F33E
:10191000C701074A11701046007800EB4001C1EB87
:10192000C0104FF6FF7101EAC0000249088010BDE7
:101930001C0400201E04002010B51348006840F06D
:1019400001001149086008464068104908400E49E6
:101950004860084600680E4908400B490860084680
:10196000006820F4802008600846406820F4FE00EB
:1019700048604FF41F008860FFF735FF4FF00060AC
:101980000449086010BD0000001002400000FFF88C
:10199000FFFFF6FE08ED00E010B50121034800F05E
:1019A0000AF80121014800F003F810BD00040040CE
:1019B000CA430282704730B502460020002300244B
:1019C000158A05EA0103958905EA010413B10CB1F2
:1019D000012000E0002030BD10B540F225510C4838
:1019E00000F02EF870B10A4800F054F8C4B2214655
:1019F000074800F054F800BF4021054800F013F8F4
:101A00000128F9D14021024800F004F810BD00007F
:101A10000038014001F40072B2F5007F00D100BF30
:101A2000CA430280704702460020B1F5007F00D112
:101A300000BF13880B400BB1012000E0002070476D
:101A400070B50246002400230025002040F66A16E7
:101A5000B14200D100BFC1F3421501F01F030126BE
:101A600006FA03F3012D02D19689334006E0022DD8
:101A700002D1168A334001E0968A33400C120126C7
:101A800006FA04F41688344013B10CB1012000E0CA
:101A9000002070BD01468888C0F308007047C1F37C
:101AA00008028280704700BFFEE710B50446FFF7CA
:101AB0005FF97820FFF72AF9FFF792F90020FFF786
:101AC00025F9FFF78DF92046FFF720F9FFF788F990
:101AD000FFF76AF910BD10B50446FFF749F9782001
:101AE000FFF714F9FFF77CF94020FFF70FF9FFF734
:101AF00077F92046FFF70AF9FFF772F9FFF754F973
:101B000010BD02E008C8121F08C1002AFAD17047B0
:101B10007047002001E001C1121F002AFBD170476D
:101B20000146114A12884A434FF0E0235A610022CD
:101B30009A611A46126942F001021A6100BF4FF021
:101B4000E022106900F001021AB100F48032002A8C
:101B5000F5D04FF0E022126922F001024FF0E023AD
:101B60001A6100229A6170471E0400200146114A42
:101B700012784A434FF0E0235A6100229A611A46D4
:101B8000126942F001021A6100BF4FF0E0221069B1
:101B900000F001021AB100F48032002AF5D04FF0B3
:101BA000E022126922F001024FF0E0231A610022C4
:101BB0009A6170471C0400202DE9F0472E490888DF
:101BC000FEF738FC8246FEF79CFC80464FF06632FA
:101BD0002A4BFEF74EFB06460022294BFEF7BBFBC5
:101BE0000446FEF7D1FC2749086023494888FEF7E0
:101BF00021FC8246FEF785FC80464FF066321F4B83
:101C0000FEF737FB064600221D4BFEF7A4FB0446F9
:101C1000FEF7BAFC1C49086017498888FEF70AFCE1
:101C20008246FEF76EFC80464FF06632134BFEF79D
:101C300020FB06460022124BFEF78DFB0446FEF702
:101C4000A3FC124908600C49C888FEF7F3FB8246E2
:101C5000FEF757FC06464FF06632084BFEF709FBCD
:101C600004460022064BFEF776FB8046FEF78CFC0E
:101C700007490860BDE8F0871404002066660A4042
:101C80000000B04004040020080400200C040020E0
:101C90001004002008B501211020FFF7E5FC4FF4E7
:101CA0000050ADF8000010208DF8030003208DF8DF
:101CB000020069460448FEF772FF4FF400510248E3
:101CC000FEF7FAFF08BD0000001001408AB00024B2
:101CD00000BF4820FFF712FE4FF4A060FFF766FA3E
:101CE000FFF7D8FFFFF7A2F8FEF7EAFFFFF758F972
:101CF000FFF7A0FBFFF72EF9F44807237F2200210E
:101D000000900846FFF77BFA4FF47A70FFF708FF60
:101D1000FFF756FAFFF7B0F9D6E1601CC4B2142001
:101D200094FBF0F100FB114000B90024E848006882
:101D300048B1E8480068FEF7E4FB05460022E64BA0
:101D4000FEF70AFC03D80020E449086002E0012005
:101D5000E2490860FFF730FF0C23E1A200212320B5
:101D6000FFF73CFC0C23E1A202210020FFF736FC28
:101D7000E0480068FEF7C5FB054603202A460B46EF
:101D8000302100900220FFF775FA0C23DAA203211C
:101D90000020FFF723FCCF480068FEF7B2FB0546A2
:101DA00003202A460B4630210090FFF763FA0C23EC
:101DB000D3A204210020FFF711FCD3480068FEF7EE
:101DC000A0FB054603202A460B463C210090042038
:101DD000FFF750FA0C23CDA205210020FFF7FEFBF0
:101DE000CC480068FEF78DFB054603202A460B46CB
:101DF0003C2100900520FFF73DFA0C23C6A20621E6
:101E00000020FFF7EBFBB24800683030C2B20C2371
:101E100006212420FFF790FB0C23C0A206215020AE
:101E2000FFF7DCFBBE48D0F820013030C2B20C23F3
:101E300006217020FFF780FB0C23BAA207210020A7
:101E4000FFF7CCFBA248103000683030C2B20C2340
:101E500007212420FFF770FB0C23B3A20721502099
:101E6000FFF7BCFBAE48D0F830013030C2B20C23D3
:101E700007217020FFF760FB01A8FFF731F9202848
:101E80007ED16C208DF8040078208DF805003A2072
:101E90008DF8060097480068FEF7E2FA3030C0B2CD
:101EA0008DF8070093480068FEF7DAFA00EB80002F
:101EB00040000A2190FBF1F201FB12003030C0B269
:101EC0008DF808008B480068FEF7CAFA6421484381
:101ED0000A2190FBF1F201FB12003030C0B28DF804
:101EE000090084480068FEF7BBFA4FF47A71484352
:101EF0000A2190FBF1F201FB12003030C0B28DF8E4
:101F00000A0074480068FEF7ABFA3030C0B28DF8B2
:101F10000B0070480068FEF7A3FA00EB8000400059
:101F20000A2190FBF1F201FB12003030C0B28DF8B3
:101F30000C0068480068FEF793FA642148430A21C0
:101F400090FBF1F201FB12003030C0B28DF80D00B1
:101F500060480068FEF784FA4FF47A7148430A211A
:101F600090FBF1F201FB12003030C0B28DF80E0090
:101F70006C208DF80F00564800683030C0B200E089
:101F80009FE08DF810006C208DF8110032208DF844
:101F900012006348D0F820013030C0B28DF8130031
:101FA00072208DF8140078208DF815003A208DF8F5
:101FB000160055480068FEF753FA3030C0B28DF86D
:101FC000170051480068FEF74BFA00EB8000400014
:101FD0000A2190FBF1F201FB12003030C0B28DF803
:101FE000180049480068FEF73BFA642148430A217B
:101FF00090FBF1F201FB12003030C0B28DF81900F5
:1020000041480068FEF72CFA4FF47A7148430A21E0
:1020100090FBF1F201FB12003030C0B28DF81A00D3
:102020003C480068FEF71CFA3030C0B28DF81B0047
:1020300038480068FEF714FA00EB800040000A21DF
:1020400090FBF1F201FB12003030C0B28DF81C00A1
:1020500030480068FEF704FA642148430A2190FBE7
:10206000F1F201FB12003030C0B28DF81D0029489A
:102070000068FEF7F5F94FF47A7148430A2190FBA6
:10208000F1F201FB12003030C0B28DF81E006C205E
:102090008DF81F000E48103000683030C0B28DF847
:1020A00020006C208DF8210032208DF822001C4881
:1020B000D0F830013030C0B28DF8230000208DF808
:1020C00024000A20FFF72CFD27E600000400002072
:1020D0001C0121420804002000000440B4012242F7
:1020E00073746D33325F6A6F790000006C656674DB
:1020F000783A0000040400206C656674793A0000A8
:102100007269676874783A000C0400207269676825
:1021100074793A00100400206C313A006C323A00B5
:102120000000214272313A0072323A000000000091
:1021300000000000002F000000000700070000144E
:102140007F147F1400242A7F2A120062640813235C
:1021500000364955225000000503000000001C22F3
:102160004100000041221C000014083E0814000831
:10217000083E0808000000A06000000808080808E1
:10218000000060600000002010080402003E514979
:10219000453E0000427F4000004261514946002117
:1021A00041454B31001814127F1000274545453931
:1021B000003C4A494930000171090503003649498C
:1021C000493600064949291E000036360000000045
:1021D0005636000000081422410000141414141490
:1021E0000000412214080002015109060032495939
:1021F000513E007C1211127C007F49494936003E55
:1022000041414122007F4141221C007F494949410F
:10221000007F09090901003E4149497A007F080809
:10222000087F0000417F4100002040413F01007FC6
:1022300008142241007F40404040007F020C027F92
:10224000007F0408107F003E4141413E007F0909A4
:102250000906003E4151215E007F091929460046CA
:10226000494949310001017F0101003F4040403FA1
:10227000001F2040201F003F4038403F00631408EB
:1022800014630007087008070061514945430000C6
:102290007F41410000552A552A55000041417F00E9
:1022A00000040201020400404040404000000102DE
:1022B0000400002054545478007F484444380038C7
:1022C0004444442000384444487F0038545454184F
:1022D00000087E0901020018A4A4A47C007F080461
:1022E00004780000447D4000004080847D00007F31
:1022F000102844000000417F4000007C041804784E
:10230000007C0804047800384444443800FC242449
:1023100024180018242418FC007C08040408004831
:102320005454542000043F444020003C4040207C52
:10233000001C2040201C003C4030403C0044281041
:102340002844001CA0A0A07C004464544C441414F5
:10235000141414140000000000000000000000002D
:1023600000000000000000F8000000000000003342
:102370003000000000100C06100C060000000000E9
:102380000000000040C07840C0784000043F0404D2
:102390003F040400007088FC08300000001820FF93
:1023A000211E0000F008F000E018000000211C03CE
:1023B0001E211E0000F00888700000001E2123244A
:1023C0001927211010160E00000000000000000068
:1023D00000000000000000E01804020000000007F8
:1023E0001820400000020418E000000000402018FF
:1023F00007000000404080F0804040000202010FD2
:1024000001020200000000F0000000000101011FB5
:1024100001010100000000000000000080B0700019
:1024200000000000000000000000000000010101A9
:102430000101010100000000000000000030300038
:102440000000000000000000806018040060180612
:102450000100000000E010080810E000000F10204C
:1024600020100F00001010F8000000000020203F96
:102470002020000000700808088870000030282420
:1024800022213000003008888848300000182020C1
:1024900020110E000000C02010F8000000070424E6
:1024A000243F240000F8088888080800001921202B
:1024B00020110E0000E0108888180000000F112085
:1024C00020110E0000380808C83808000000003F3E
:1024D000000000000070880808887000001C22219D
:1024E00021221C0000E010080810E000000031224A
:1024F00022110F00000000C0C000000000000030EA
:10250000300000000000008000000000000080603B
:1025100000000000000080402010080000010204BC
:1025200008102000404040404040400004040404A3
:10253000040404000008102040800000002010085F
:1025400004020100007048080808F0000000003094
:1025500036010000C030C828E810E0000718272422
:1025600023140B000000C038E0000000203C2302D0
:102570000227382008F8888888700000203F202033
:1025800020110E00C0300808080838000718202065
:102590002010080008F808080810E000203F20205C
:1025A00020100F0008F88888E8081000203F20203D
:1025B0002320180008F88888E8081000203F200031
:1025C00003000000C0300808083800000718202069
:1025D000221E020008F808000008F808203F210128
:1025E00001213F20000808F8080800000020203FD3
:1025F0002020000000000808F8080800C080808043
:102600007F00000008F888C028180800203F20013B
:102610002638200008F8080000000000203F202095
:102620002020300008F8F800F8F80800203F003FAC
:10263000003F200008F830C00008F808203F2000C4
:1026400007183F00E01008080810E0000F102020D5
:1026500020100F0008F808080808F000203F2101AA
:1026600001010000E01008080810E0000F18242401
:1026700038504F0008F8888888887000203F200074
:10268000030C30200070880808083800003820212A
:1026900021221C00180808F8080818000000203F34
:1026A0002000000008F808000008F808001F20209B
:1026B00020201F000878880000C83808000007386C
:1026C0000E010000F80800F80008F800033C0700BD
:1026D000073C0300081868808068180820302C0325
:1026E000032C30200838C800C83808000000203FFC
:1026F0002000000010080808C838080020382621EB
:1027000020201800000000FE020202000000007FEE
:1027100040404000000C30C00000000000000001FC
:102720000638C00000020202FE00000000404040E7
:102730007F0000000000040202020400000000000C
:102740000000000000000000000000008080808089
:102750008080808000020204000000000000000071
:10276000000000000000808080800000001924220A
:1027700022223F2008F8008080000000003F112046
:1027800020110E000000008080800000000E11204B
:1027900020201100000000808088F800000E112029
:1027A00020103F200000808080800000001F222237
:1027B00022221300008080F0888888180020203FA3
:1027C000202000000000808080808000006B9494B6
:1027D0009493600008F8008080800000203F210072
:1027E00000203F2000809898000000000020203F3B
:1027F00020200000000000809898000000C0808029
:10280000807F000008F8000080808000203F2402C4
:102810002D302000000808F8000000000020203FB4
:10282000202000008080808080808000203F200069
:102830003F20003F8080008080800000203F2100FA
:1028400000203F200000808080800000001F2020AA
:1028500020201F00808000808000000080FFA120D9
:1028600020110E000000008080808000000E1120EA
:1028700020A0FF80808080008080800020203F2179
:10288000200001000000808080808000003324242C
:1028900024241900008080E0808000000000001FD8
:1028A000202000008080000000808000001F202089
:1028B00020103F20808080000080808000010E304A
:1028C0000806010080800080008080800F300C03AB
:1028D0000C300F0000808000808080000020312EAE
:1028E0000E312000808080000080808080818E708A
:1028F0001806010000808080808080000021302C3C
:102900002221300000000000807C02020000000054
:10291000003F404000000000FF00000000000000F9
:10292000FF0000000002027C800000000040403FE9
:102930000000000000060101020204040000000083
:102940000000000034431010013443101001000057
:102950007029000800000020200400007007000813
:10296000C02A00082004002000040000121B0008F8
:1029700000062D01000000FF01227F01223F0172AD
:102980001F01420F016111111E21260243FF011197
:102990006D200B1F0F8F87878383830101B1011D7A
:1029A00001438080052107100701010303070798F1
:1029B00001368C700B3F0705040606070703037CEE
:1029C000800580C0C0806EE30202800115A403323E
:1029D000010781D3F8E0DD30040002030110070293
:1029E0000E3CFCFEFC0112F801300DFCFEFEFFFC6B
:1029F000F0E0E0E0C0C0E001F404F8FC7C1805352C
:102A00007E213B43C0C07C11C6E40A03070E1E3E74
:102A10003C7C7E7EE16917390E0711070399072D6B
:102A20000F3FF9171F0F7620080B1C1E7C7C7F7F41
:102A30007120083818180C6070F8F521FA11F61199
:102A4000F8A405FEF8F8F09119D24416E0F0F0F081
:102A500070701030FFDEDCFCFFFFFDF8FEFEBA08F0
:102A600008850327038F852BF0F0493B061EEB11E9
:102A7000D810041B1F1EDCC8080E040081C7E7F72E
:102A80002651EE238C0C381C0A80F0FFFFF1ECCCB1
:102A90009E3E21032D080359C63B7C303C0B2AFF88
:102AA000FE8036FEDFC10101114122FE28250F0103
:102AB0001C3C0213FC7CC005000020400481010086
:0400000508000101ED
:00000001FF
